{
  "_format": "hh-sol-artifact-1",
  "contractName": "TokenMaster",
  "sourceName": "contracts/TokenMaster.sol",
  "abi": [
    {
      "inputs": [
        {
          "internalType": "string",
          "name": "_name",
          "type": "string"
        },
        {
          "internalType": "string",
          "name": "_symbol",
          "type": "string"
        }
      ],
      "stateMutability": "nonpayable",
      "type": "constructor"
    },
    {
      "anonymous": false,
      "inputs": [
        {
          "indexed": true,
          "internalType": "address",
          "name": "owner",
          "type": "address"
        },
        {
          "indexed": true,
          "internalType": "address",
          "name": "approved",
          "type": "address"
        },
        {
          "indexed": true,
          "internalType": "uint256",
          "name": "tokenId",
          "type": "uint256"
        }
      ],
      "name": "Approval",
      "type": "event"
    },
    {
      "anonymous": false,
      "inputs": [
        {
          "indexed": true,
          "internalType": "address",
          "name": "owner",
          "type": "address"
        },
        {
          "indexed": true,
          "internalType": "address",
          "name": "operator",
          "type": "address"
        },
        {
          "indexed": false,
          "internalType": "bool",
          "name": "approved",
          "type": "bool"
        }
      ],
      "name": "ApprovalForAll",
      "type": "event"
    },
    {
      "anonymous": false,
      "inputs": [
        {
          "indexed": true,
          "internalType": "address",
          "name": "from",
          "type": "address"
        },
        {
          "indexed": true,
          "internalType": "address",
          "name": "to",
          "type": "address"
        },
        {
          "indexed": true,
          "internalType": "uint256",
          "name": "tokenId",
          "type": "uint256"
        }
      ],
      "name": "Transfer",
      "type": "event"
    },
    {
      "inputs": [
        {
          "internalType": "address",
          "name": "to",
          "type": "address"
        },
        {
          "internalType": "uint256",
          "name": "tokenId",
          "type": "uint256"
        }
      ],
      "name": "approve",
      "outputs": [],
      "stateMutability": "nonpayable",
      "type": "function"
    },
    {
      "inputs": [
        {
          "internalType": "address",
          "name": "owner",
          "type": "address"
        }
      ],
      "name": "balanceOf",
      "outputs": [
        {
          "internalType": "uint256",
          "name": "",
          "type": "uint256"
        }
      ],
      "stateMutability": "view",
      "type": "function"
    },
    {
      "inputs": [
        {
          "internalType": "uint256",
          "name": "tokenId",
          "type": "uint256"
        }
      ],
      "name": "getApproved",
      "outputs": [
        {
          "internalType": "address",
          "name": "",
          "type": "address"
        }
      ],
      "stateMutability": "view",
      "type": "function"
    },
    {
      "inputs": [
        {
          "internalType": "uint256",
          "name": "_id",
          "type": "uint256"
        }
      ],
      "name": "getOccasion",
      "outputs": [
        {
          "components": [
            {
              "internalType": "uint256",
              "name": "id",
              "type": "uint256"
            },
            {
              "internalType": "string",
              "name": "name",
              "type": "string"
            },
            {
              "internalType": "uint256",
              "name": "cost",
              "type": "uint256"
            },
            {
              "internalType": "uint256",
              "name": "tickets",
              "type": "uint256"
            },
            {
              "internalType": "uint256",
              "name": "maxTickets",
              "type": "uint256"
            },
            {
              "internalType": "string",
              "name": "date",
              "type": "string"
            },
            {
              "internalType": "string",
              "name": "time",
              "type": "string"
            },
            {
              "internalType": "string",
              "name": "location",
              "type": "string"
            }
          ],
          "internalType": "struct TokenMaster.Occasion",
          "name": "",
          "type": "tuple"
        }
      ],
      "stateMutability": "view",
      "type": "function"
    },
    {
      "inputs": [
        {
          "internalType": "uint256",
          "name": "_id",
          "type": "uint256"
        }
      ],
      "name": "getSeatsTaken",
      "outputs": [
        {
          "internalType": "uint256[]",
          "name": "",
          "type": "uint256[]"
        }
      ],
      "stateMutability": "view",
      "type": "function"
    },
    {
      "inputs": [
        {
          "internalType": "uint256",
          "name": "",
          "type": "uint256"
        },
        {
          "internalType": "address",
          "name": "",
          "type": "address"
        }
      ],
      "name": "hasBought",
      "outputs": [
        {
          "internalType": "bool",
          "name": "",
          "type": "bool"
        }
      ],
      "stateMutability": "view",
      "type": "function"
    },
    {
      "inputs": [
        {
          "internalType": "address",
          "name": "owner",
          "type": "address"
        },
        {
          "internalType": "address",
          "name": "operator",
          "type": "address"
        }
      ],
      "name": "isApprovedForAll",
      "outputs": [
        {
          "internalType": "bool",
          "name": "",
          "type": "bool"
        }
      ],
      "stateMutability": "view",
      "type": "function"
    },
    {
      "inputs": [
        {
          "internalType": "string",
          "name": "_name",
          "type": "string"
        },
        {
          "internalType": "uint256",
          "name": "_cost",
          "type": "uint256"
        },
        {
          "internalType": "uint256",
          "name": "_maxTickets",
          "type": "uint256"
        },
        {
          "internalType": "string",
          "name": "_date",
          "type": "string"
        },
        {
          "internalType": "string",
          "name": "_time",
          "type": "string"
        },
        {
          "internalType": "string",
          "name": "_location",
          "type": "string"
        }
      ],
      "name": "list",
      "outputs": [],
      "stateMutability": "nonpayable",
      "type": "function"
    },
    {
      "inputs": [
        {
          "internalType": "uint256",
          "name": "_id",
          "type": "uint256"
        },
        {
          "internalType": "uint256",
          "name": "_seat",
          "type": "uint256"
        }
      ],
      "name": "mint",
      "outputs": [],
      "stateMutability": "payable",
      "type": "function"
    },
    {
      "inputs": [],
      "name": "name",
      "outputs": [
        {
          "internalType": "string",
          "name": "",
          "type": "string"
        }
      ],
      "stateMutability": "view",
      "type": "function"
    },
    {
      "inputs": [],
      "name": "owner",
      "outputs": [
        {
          "internalType": "address",
          "name": "",
          "type": "address"
        }
      ],
      "stateMutability": "view",
      "type": "function"
    },
    {
      "inputs": [
        {
          "internalType": "uint256",
          "name": "tokenId",
          "type": "uint256"
        }
      ],
      "name": "ownerOf",
      "outputs": [
        {
          "internalType": "address",
          "name": "",
          "type": "address"
        }
      ],
      "stateMutability": "view",
      "type": "function"
    },
    {
      "inputs": [
        {
          "internalType": "address",
          "name": "from",
          "type": "address"
        },
        {
          "internalType": "address",
          "name": "to",
          "type": "address"
        },
        {
          "internalType": "uint256",
          "name": "tokenId",
          "type": "uint256"
        }
      ],
      "name": "safeTransferFrom",
      "outputs": [],
      "stateMutability": "nonpayable",
      "type": "function"
    },
    {
      "inputs": [
        {
          "internalType": "address",
          "name": "from",
          "type": "address"
        },
        {
          "internalType": "address",
          "name": "to",
          "type": "address"
        },
        {
          "internalType": "uint256",
          "name": "tokenId",
          "type": "uint256"
        },
        {
          "internalType": "bytes",
          "name": "data",
          "type": "bytes"
        }
      ],
      "name": "safeTransferFrom",
      "outputs": [],
      "stateMutability": "nonpayable",
      "type": "function"
    },
    {
      "inputs": [
        {
          "internalType": "uint256",
          "name": "",
          "type": "uint256"
        },
        {
          "internalType": "uint256",
          "name": "",
          "type": "uint256"
        }
      ],
      "name": "seatTaken",
      "outputs": [
        {
          "internalType": "address",
          "name": "",
          "type": "address"
        }
      ],
      "stateMutability": "view",
      "type": "function"
    },
    {
      "inputs": [
        {
          "internalType": "address",
          "name": "operator",
          "type": "address"
        },
        {
          "internalType": "bool",
          "name": "approved",
          "type": "bool"
        }
      ],
      "name": "setApprovalForAll",
      "outputs": [],
      "stateMutability": "nonpayable",
      "type": "function"
    },
    {
      "inputs": [
        {
          "internalType": "bytes4",
          "name": "interfaceId",
          "type": "bytes4"
        }
      ],
      "name": "supportsInterface",
      "outputs": [
        {
          "internalType": "bool",
          "name": "",
          "type": "bool"
        }
      ],
      "stateMutability": "view",
      "type": "function"
    },
    {
      "inputs": [],
      "name": "symbol",
      "outputs": [
        {
          "internalType": "string",
          "name": "",
          "type": "string"
        }
      ],
      "stateMutability": "view",
      "type": "function"
    },
    {
      "inputs": [
        {
          "internalType": "uint256",
          "name": "tokenId",
          "type": "uint256"
        }
      ],
      "name": "tokenURI",
      "outputs": [
        {
          "internalType": "string",
          "name": "",
          "type": "string"
        }
      ],
      "stateMutability": "view",
      "type": "function"
    },
    {
      "inputs": [],
      "name": "totalOccasions",
      "outputs": [
        {
          "internalType": "uint256",
          "name": "",
          "type": "uint256"
        }
      ],
      "stateMutability": "view",
      "type": "function"
    },
    {
      "inputs": [],
      "name": "totalSupply",
      "outputs": [
        {
          "internalType": "uint256",
          "name": "",
          "type": "uint256"
        }
      ],
      "stateMutability": "view",
      "type": "function"
    },
    {
      "inputs": [
        {
          "internalType": "address",
          "name": "from",
          "type": "address"
        },
        {
          "internalType": "address",
          "name": "to",
          "type": "address"
        },
        {
          "internalType": "uint256",
          "name": "tokenId",
          "type": "uint256"
        }
      ],
      "name": "transferFrom",
      "outputs": [],
      "stateMutability": "nonpayable",
      "type": "function"
    },
    {
      "inputs": [],
      "name": "withdraw",
      "outputs": [],
      "stateMutability": "nonpayable",
      "type": "function"
    }
  ],
  "bytecode": "0x60806040523480156200001157600080fd5b5060405162003e6038038062003e6083398181016040528101906200003791906200023b565b818181600090816200004a91906200050b565b5080600190816200005c91906200050b565b50505033600660006101000a81548173ffffffffffffffffffffffffffffffffffffffff021916908373ffffffffffffffffffffffffffffffffffffffff1602179055505050620005f2565b6000604051905090565b600080fd5b600080fd5b600080fd5b600080fd5b6000601f19601f8301169050919050565b7f4e487b7100000000000000000000000000000000000000000000000000000000600052604160045260246000fd5b6200011182620000c6565b810181811067ffffffffffffffff82111715620001335762000132620000d7565b5b80604052505050565b600062000148620000a8565b905062000156828262000106565b919050565b600067ffffffffffffffff821115620001795762000178620000d7565b5b6200018482620000c6565b9050602081019050919050565b60005b83811015620001b157808201518184015260208101905062000194565b60008484015250505050565b6000620001d4620001ce846200015b565b6200013c565b905082815260208101848484011115620001f357620001f2620000c1565b5b6200020084828562000191565b509392505050565b600082601f83011262000220576200021f620000bc565b5b815162000232848260208601620001bd565b91505092915050565b60008060408385031215620002555762000254620000b2565b5b600083015167ffffffffffffffff811115620002765762000275620000b7565b5b620002848582860162000208565b925050602083015167ffffffffffffffff811115620002a857620002a7620000b7565b5b620002b68582860162000208565b9150509250929050565b600081519050919050565b7f4e487b7100000000000000000000000000000000000000000000000000000000600052602260045260246000fd5b600060028204905060018216806200031357607f821691505b602082108103620003295762000328620002cb565b5b50919050565b60008190508160005260206000209050919050565b60006020601f8301049050919050565b600082821b905092915050565b600060088302620003937fffffffffffffffffffffffffffffffffffffffffffffffffffffffffffffffff8262000354565b6200039f868362000354565b95508019841693508086168417925050509392505050565b6000819050919050565b6000819050919050565b6000620003ec620003e6620003e084620003b7565b620003c1565b620003b7565b9050919050565b6000819050919050565b6200040883620003cb565b620004206200041782620003f3565b84845462000361565b825550505050565b600090565b6200043762000428565b62000444818484620003fd565b505050565b5b818110156200046c57620004606000826200042d565b6001810190506200044a565b5050565b601f821115620004bb5762000485816200032f565b620004908462000344565b81016020851015620004a0578190505b620004b8620004af8562000344565b83018262000449565b50505b505050565b600082821c905092915050565b6000620004e060001984600802620004c0565b1980831691505092915050565b6000620004fb8383620004cd565b9150826002028217905092915050565b6200051682620002c0565b67ffffffffffffffff811115620005325762000531620000d7565b5b6200053e8254620002fa565b6200054b82828562000470565b600060209050601f8311600181146200058357600084156200056e578287015190505b6200057a8582620004ed565b865550620005ea565b601f19841662000593866200032f565b60005b82811015620005bd5784890151825560018201915060208501945060208101905062000596565b86831015620005dd5784890151620005d9601f891682620004cd565b8355505b6001600288020188555050505b505050505050565b61385e80620006026000396000f3fe6080604052600436106101405760003560e01c806370a08231116100b65780639cb04aef1161006f5780639cb04aef14610461578063a22cb4651461049e578063af296da1146104c7578063b88d4fde14610504578063c87b56dd1461052d578063e985e9c51461056a57610140565b806370a082311461033d57806374bc86561461037a5780638da5cb5b146103b7578063953865c1146103e257806395d89b411461040d5780639a382f0f1461043857610140565b806318160ddd1161010857806318160ddd146102505780631b2ef1ca1461027b57806323b872dd146102975780633ccfd60b146102c057806342842e0e146102d75780636352211e1461030057610140565b806301ffc9a71461014557806306fdde0314610182578063081812fc146101ad578063095ea7b3146101ea5780630ef7ec7414610213575b600080fd5b34801561015157600080fd5b5061016c60048036038101906101679190612350565b6105a7565b6040516101799190612398565b60405180910390f35b34801561018e57600080fd5b50610197610689565b6040516101a49190612443565b60405180910390f35b3480156101b957600080fd5b506101d460048036038101906101cf919061249b565b61071b565b6040516101e19190612509565b60405180910390f35b3480156101f657600080fd5b50610211600480360381019061020c9190612550565b610761565b005b34801561021f57600080fd5b5061023a6004803603810190610235919061249b565b610878565b604051610247919061264e565b60405180910390f35b34801561025c57600080fd5b506102656108e3565b604051610272919061267f565b60405180910390f35b6102956004803603810190610290919061269a565b6108e9565b005b3480156102a357600080fd5b506102be60048036038101906102b991906126da565b610b24565b005b3480156102cc57600080fd5b506102d5610b84565b005b3480156102e357600080fd5b506102fe60048036038101906102f991906126da565b610caf565b005b34801561030c57600080fd5b506103276004803603810190610322919061249b565b610ccf565b6040516103349190612509565b60405180910390f35b34801561034957600080fd5b50610364600480360381019061035f919061272d565b610d55565b604051610371919061267f565b60405180910390f35b34801561038657600080fd5b506103a1600480360381019061039c919061249b565b610e0c565b6040516103ae9190612869565b60405180910390f35b3480156103c357600080fd5b506103cc6110aa565b6040516103d99190612509565b60405180910390f35b3480156103ee57600080fd5b506103f76110d0565b604051610404919061267f565b60405180910390f35b34801561041957600080fd5b506104226110d6565b60405161042f9190612443565b60405180910390f35b34801561044457600080fd5b5061045f600480360381019061045a91906129c0565b611168565b005b34801561046d57600080fd5b5061048860048036038101906104839190612abd565b6112ec565b6040516104959190612398565b60405180910390f35b3480156104aa57600080fd5b506104c560048036038101906104c09190612b29565b61131b565b005b3480156104d357600080fd5b506104ee60048036038101906104e9919061269a565b611331565b6040516104fb9190612509565b60405180910390f35b34801561051057600080fd5b5061052b60048036038101906105269190612c0a565b611373565b005b34801561053957600080fd5b50610554600480360381019061054f919061249b565b6113d5565b6040516105619190612443565b60405180910390f35b34801561057657600080fd5b50610591600480360381019061058c9190612c8d565b61143d565b60405161059e9190612398565b60405180910390f35b60007f80ac58cd000000000000000000000000000000000000000000000000000000007bffffffffffffffffffffffffffffffffffffffffffffffffffffffff1916827bffffffffffffffffffffffffffffffffffffffffffffffffffffffff1916148061067257507f5b5e139f000000000000000000000000000000000000000000000000000000007bffffffffffffffffffffffffffffffffffffffffffffffffffffffff1916827bffffffffffffffffffffffffffffffffffffffffffffffffffffffff1916145b806106825750610681826114d1565b5b9050919050565b60606000805461069890612cfc565b80601f01602080910402602001604051908101604052809291908181526020018280546106c490612cfc565b80156107115780601f106106e657610100808354040283529160200191610711565b820191906000526020600020905b8154815290600101906020018083116106f457829003601f168201915b5050505050905090565b60006107268261153b565b6004600083815260200190815260200160002060009054906101000a900473ffffffffffffffffffffffffffffffffffffffff169050919050565b600061076c82610ccf565b90508073ffffffffffffffffffffffffffffffffffffffff168373ffffffffffffffffffffffffffffffffffffffff16036107dc576040517f08c379a00000000000000000000000000000000000000000000000000000000081526004016107d390612d9f565b60405180910390fd5b8073ffffffffffffffffffffffffffffffffffffffff166107fb611586565b73ffffffffffffffffffffffffffffffffffffffff16148061082a575061082981610824611586565b61143d565b5b610869576040517f08c379a000000000000000000000000000000000000000000000000000000000815260040161086090612e31565b60405180910390fd5b610873838361158e565b505050565b6060600c60008381526020019081526020016000208054806020026020016040519081016040528092919081815260200182805480156108d757602002820191906000526020600020905b8154815260200190600101908083116108c3575b50505050509050919050565b60085481565b600082036108f657600080fd5b60075482111561090557600080fd5b600960008381526020019081526020016000206002015434101561092857600080fd5b600073ffffffffffffffffffffffffffffffffffffffff16600b6000848152602001908152602001600020600083815260200190815260200160002060009054906101000a900473ffffffffffffffffffffffffffffffffffffffff1673ffffffffffffffffffffffffffffffffffffffff16146109a557600080fd5b60096000838152602001908152602001600020600401548111156109c857600080fd5b60016009600084815260200190815260200160002060030160008282546109ef9190612e80565b925050819055506001600a600084815260200190815260200160002060003373ffffffffffffffffffffffffffffffffffffffff1673ffffffffffffffffffffffffffffffffffffffff16815260200190815260200160002060006101000a81548160ff02191690831515021790555033600b6000848152602001908152602001600020600083815260200190815260200160002060006101000a81548173ffffffffffffffffffffffffffffffffffffffff021916908373ffffffffffffffffffffffffffffffffffffffff160217905550600c600083815260200190815260200160002081908060018154018082558091505060019003906000526020600020016000909190919091505560086000815480929190610b0f90612eb4565b9190505550610b2033600854611647565b5050565b610b35610b2f611586565b82611665565b610b74576040517f08c379a0000000000000000000000000000000000000000000000000000000008152600401610b6b90612f6e565b60405180910390fd5b610b7f8383836116fa565b505050565b3373ffffffffffffffffffffffffffffffffffffffff16600660009054906101000a900473ffffffffffffffffffffffffffffffffffffffff1673ffffffffffffffffffffffffffffffffffffffff1614610c14576040517f08c379a0000000000000000000000000000000000000000000000000000000008152600401610c0b90612fda565b60405180910390fd5b6000600660009054906101000a900473ffffffffffffffffffffffffffffffffffffffff1673ffffffffffffffffffffffffffffffffffffffff1647604051610c5c9061302b565b60006040518083038185875af1925050503d8060008114610c99576040519150601f19603f3d011682016040523d82523d6000602084013e610c9e565b606091505b5050905080610cac57600080fd5b50565b610cca83838360405180602001604052806000815250611373565b505050565b600080610cdb836119f3565b9050600073ffffffffffffffffffffffffffffffffffffffff168173ffffffffffffffffffffffffffffffffffffffff1603610d4c576040517f08c379a0000000000000000000000000000000000000000000000000000000008152600401610d439061308c565b60405180910390fd5b80915050919050565b60008073ffffffffffffffffffffffffffffffffffffffff168273ffffffffffffffffffffffffffffffffffffffff1603610dc5576040517f08c379a0000000000000000000000000000000000000000000000000000000008152600401610dbc9061311e565b60405180910390fd5b600360008373ffffffffffffffffffffffffffffffffffffffff1673ffffffffffffffffffffffffffffffffffffffff168152602001908152602001600020549050919050565b610e1461229f565b600960008381526020019081526020016000206040518061010001604052908160008201548152602001600182018054610e4d90612cfc565b80601f0160208091040260200160405190810160405280929190818152602001828054610e7990612cfc565b8015610ec65780601f10610e9b57610100808354040283529160200191610ec6565b820191906000526020600020905b815481529060010190602001808311610ea957829003601f168201915b50505050508152602001600282015481526020016003820154815260200160048201548152602001600582018054610efd90612cfc565b80601f0160208091040260200160405190810160405280929190818152602001828054610f2990612cfc565b8015610f765780601f10610f4b57610100808354040283529160200191610f76565b820191906000526020600020905b815481529060010190602001808311610f5957829003601f168201915b50505050508152602001600682018054610f8f90612cfc565b80601f0160208091040260200160405190810160405280929190818152602001828054610fbb90612cfc565b80156110085780601f10610fdd57610100808354040283529160200191611008565b820191906000526020600020905b815481529060010190602001808311610feb57829003601f168201915b5050505050815260200160078201805461102190612cfc565b80601f016020809104026020016040519081016040528092919081815260200182805461104d90612cfc565b801561109a5780601f1061106f5761010080835404028352916020019161109a565b820191906000526020600020905b81548152906001019060200180831161107d57829003601f168201915b5050505050815250509050919050565b600660009054906101000a900473ffffffffffffffffffffffffffffffffffffffff1681565b60075481565b6060600180546110e590612cfc565b80601f016020809104026020016040519081016040528092919081815260200182805461111190612cfc565b801561115e5780601f106111335761010080835404028352916020019161115e565b820191906000526020600020905b81548152906001019060200180831161114157829003601f168201915b5050505050905090565b3373ffffffffffffffffffffffffffffffffffffffff16600660009054906101000a900473ffffffffffffffffffffffffffffffffffffffff1673ffffffffffffffffffffffffffffffffffffffff16146111f8576040517f08c379a00000000000000000000000000000000000000000000000000000000081526004016111ef90612fda565b60405180910390fd5b6007600081548092919061120b90612eb4565b919050555060405180610100016040528060075481526020018781526020018681526020018581526020018581526020018481526020018381526020018281525060096000600754815260200190815260200160002060008201518160000155602082015181600101908161128091906132ea565b5060408201518160020155606082015181600301556080820151816004015560a08201518160050190816112b491906132ea565b5060c08201518160060190816112ca91906132ea565b5060e08201518160070190816112e091906132ea565b50905050505050505050565b600a6020528160005260406000206020528060005260406000206000915091509054906101000a900460ff1681565b61132d611326611586565b8383611a30565b5050565b600b6020528160005260406000206020528060005260406000206000915091509054906101000a900473ffffffffffffffffffffffffffffffffffffffff1681565b61138461137e611586565b83611665565b6113c3576040517f08c379a00000000000000000000000000000000000000000000000000000000081526004016113ba90612f6e565b60405180910390fd5b6113cf84848484611b9c565b50505050565b60606113e08261153b565b60006113ea611bf8565b9050600081511161140a5760405180602001604052806000815250611435565b8061141484611c0f565b6040516020016114259291906133f8565b6040516020818303038152906040525b915050919050565b6000600560008473ffffffffffffffffffffffffffffffffffffffff1673ffffffffffffffffffffffffffffffffffffffff16815260200190815260200160002060008373ffffffffffffffffffffffffffffffffffffffff1673ffffffffffffffffffffffffffffffffffffffff16815260200190815260200160002060009054906101000a900460ff16905092915050565b60007f01ffc9a7000000000000000000000000000000000000000000000000000000007bffffffffffffffffffffffffffffffffffffffffffffffffffffffff1916827bffffffffffffffffffffffffffffffffffffffffffffffffffffffff1916149050919050565b61154481611cdd565b611583576040517f08c379a000000000000000000000000000000000000000000000000000000000815260040161157a9061308c565b60405180910390fd5b50565b600033905090565b816004600083815260200190815260200160002060006101000a81548173ffffffffffffffffffffffffffffffffffffffff021916908373ffffffffffffffffffffffffffffffffffffffff160217905550808273ffffffffffffffffffffffffffffffffffffffff1661160183610ccf565b73ffffffffffffffffffffffffffffffffffffffff167f8c5be1e5ebec7d5bd14f71427d1e84f3dd0314c0f7b2291e5b200ac8c7c3b92560405160405180910390a45050565b611661828260405180602001604052806000815250611d1e565b5050565b60008061167183610ccf565b90508073ffffffffffffffffffffffffffffffffffffffff168473ffffffffffffffffffffffffffffffffffffffff1614806116b357506116b2818561143d565b5b806116f157508373ffffffffffffffffffffffffffffffffffffffff166116d98461071b565b73ffffffffffffffffffffffffffffffffffffffff16145b91505092915050565b8273ffffffffffffffffffffffffffffffffffffffff1661171a82610ccf565b73ffffffffffffffffffffffffffffffffffffffff1614611770576040517f08c379a00000000000000000000000000000000000000000000000000000000081526004016117679061348e565b60405180910390fd5b600073ffffffffffffffffffffffffffffffffffffffff168273ffffffffffffffffffffffffffffffffffffffff16036117df576040517f08c379a00000000000000000000000000000000000000000000000000000000081526004016117d690613520565b60405180910390fd5b6117ec8383836001611d79565b8273ffffffffffffffffffffffffffffffffffffffff1661180c82610ccf565b73ffffffffffffffffffffffffffffffffffffffff1614611862576040517f08c379a00000000000000000000000000000000000000000000000000000000081526004016118599061348e565b60405180910390fd5b6004600082815260200190815260200160002060006101000a81549073ffffffffffffffffffffffffffffffffffffffff02191690556001600360008573ffffffffffffffffffffffffffffffffffffffff1673ffffffffffffffffffffffffffffffffffffffff168152602001908152602001600020600082825403925050819055506001600360008473ffffffffffffffffffffffffffffffffffffffff1673ffffffffffffffffffffffffffffffffffffffff16815260200190815260200160002060008282540192505081905550816002600083815260200190815260200160002060006101000a81548173ffffffffffffffffffffffffffffffffffffffff021916908373ffffffffffffffffffffffffffffffffffffffff160217905550808273ffffffffffffffffffffffffffffffffffffffff168473ffffffffffffffffffffffffffffffffffffffff167fddf252ad1be2c89b69c2b068fc378daa952ba7f163c4a11628f55a4df523b3ef60405160405180910390a46119ee8383836001611d7f565b505050565b60006002600083815260200190815260200160002060009054906101000a900473ffffffffffffffffffffffffffffffffffffffff169050919050565b8173ffffffffffffffffffffffffffffffffffffffff168373ffffffffffffffffffffffffffffffffffffffff1603611a9e576040517f08c379a0000000000000000000000000000000000000000000000000000000008152600401611a959061358c565b60405180910390fd5b80600560008573ffffffffffffffffffffffffffffffffffffffff1673ffffffffffffffffffffffffffffffffffffffff16815260200190815260200160002060008473ffffffffffffffffffffffffffffffffffffffff1673ffffffffffffffffffffffffffffffffffffffff16815260200190815260200160002060006101000a81548160ff0219169083151502179055508173ffffffffffffffffffffffffffffffffffffffff168373ffffffffffffffffffffffffffffffffffffffff167f17307eab39ab6107e8899845ad3d59bd9653f200f220920489ca2b5937696c3183604051611b8f9190612398565b60405180910390a3505050565b611ba78484846116fa565b611bb384848484611d85565b611bf2576040517f08c379a0000000000000000000000000000000000000000000000000000000008152600401611be99061361e565b60405180910390fd5b50505050565b606060405180602001604052806000815250905090565b606060006001611c1e84611f0c565b01905060008167ffffffffffffffff811115611c3d57611c3c612895565b5b6040519080825280601f01601f191660200182016040528015611c6f5781602001600182028036833780820191505090505b509050600082602001820190505b600115611cd2578080600190039150507f3031323334353637383961626364656600000000000000000000000000000000600a86061a8153600a8581611cc657611cc561363e565b5b04945060008503611c7d575b819350505050919050565b60008073ffffffffffffffffffffffffffffffffffffffff16611cff836119f3565b73ffffffffffffffffffffffffffffffffffffffff1614159050919050565b611d28838361205f565b611d356000848484611d85565b611d74576040517f08c379a0000000000000000000000000000000000000000000000000000000008152600401611d6b9061361e565b60405180910390fd5b505050565b50505050565b50505050565b6000611da68473ffffffffffffffffffffffffffffffffffffffff1661227c565b15611eff578373ffffffffffffffffffffffffffffffffffffffff1663150b7a02611dcf611586565b8786866040518563ffffffff1660e01b8152600401611df194939291906136c2565b6020604051808303816000875af1925050508015611e2d57506040513d601f19601f82011682018060405250810190611e2a9190613723565b60015b611eaf573d8060008114611e5d576040519150601f19603f3d011682016040523d82523d6000602084013e611e62565b606091505b506000815103611ea7576040517f08c379a0000000000000000000000000000000000000000000000000000000008152600401611e9e9061361e565b60405180910390fd5b805181602001fd5b63150b7a0260e01b7bffffffffffffffffffffffffffffffffffffffffffffffffffffffff1916817bffffffffffffffffffffffffffffffffffffffffffffffffffffffff191614915050611f04565b600190505b949350505050565b600080600090507a184f03e93ff9f4daa797ed6e38ed64bf6a1f0100000000000000008310611f6a577a184f03e93ff9f4daa797ed6e38ed64bf6a1f0100000000000000008381611f6057611f5f61363e565b5b0492506040810190505b6d04ee2d6d415b85acef81000000008310611fa7576d04ee2d6d415b85acef81000000008381611f9d57611f9c61363e565b5b0492506020810190505b662386f26fc100008310611fd657662386f26fc100008381611fcc57611fcb61363e565b5b0492506010810190505b6305f5e1008310611fff576305f5e1008381611ff557611ff461363e565b5b0492506008810190505b612710831061202457612710838161201a5761201961363e565b5b0492506004810190505b60648310612047576064838161203d5761203c61363e565b5b0492506002810190505b600a8310612056576001810190505b80915050919050565b600073ffffffffffffffffffffffffffffffffffffffff168273ffffffffffffffffffffffffffffffffffffffff16036120ce576040517f08c379a00000000000000000000000000000000000000000000000000000000081526004016120c59061379c565b60405180910390fd5b6120d781611cdd565b15612117576040517f08c379a000000000000000000000000000000000000000000000000000000000815260040161210e90613808565b60405180910390fd5b612125600083836001611d79565b61212e81611cdd565b1561216e576040517f08c379a000000000000000000000000000000000000000000000000000000000815260040161216590613808565b60405180910390fd5b6001600360008473ffffffffffffffffffffffffffffffffffffffff1673ffffffffffffffffffffffffffffffffffffffff16815260200190815260200160002060008282540192505081905550816002600083815260200190815260200160002060006101000a81548173ffffffffffffffffffffffffffffffffffffffff021916908373ffffffffffffffffffffffffffffffffffffffff160217905550808273ffffffffffffffffffffffffffffffffffffffff16600073ffffffffffffffffffffffffffffffffffffffff167fddf252ad1be2c89b69c2b068fc378daa952ba7f163c4a11628f55a4df523b3ef60405160405180910390a4612278600083836001611d7f565b5050565b6000808273ffffffffffffffffffffffffffffffffffffffff163b119050919050565b60405180610100016040528060008152602001606081526020016000815260200160008152602001600081526020016060815260200160608152602001606081525090565b6000604051905090565b600080fd5b600080fd5b60007fffffffff0000000000000000000000000000000000000000000000000000000082169050919050565b61232d816122f8565b811461233857600080fd5b50565b60008135905061234a81612324565b92915050565b600060208284031215612366576123656122ee565b5b60006123748482850161233b565b91505092915050565b60008115159050919050565b6123928161237d565b82525050565b60006020820190506123ad6000830184612389565b92915050565b600081519050919050565b600082825260208201905092915050565b60005b838110156123ed5780820151818401526020810190506123d2565b60008484015250505050565b6000601f19601f8301169050919050565b6000612415826123b3565b61241f81856123be565b935061242f8185602086016123cf565b612438816123f9565b840191505092915050565b6000602082019050818103600083015261245d818461240a565b905092915050565b6000819050919050565b61247881612465565b811461248357600080fd5b50565b6000813590506124958161246f565b92915050565b6000602082840312156124b1576124b06122ee565b5b60006124bf84828501612486565b91505092915050565b600073ffffffffffffffffffffffffffffffffffffffff82169050919050565b60006124f3826124c8565b9050919050565b612503816124e8565b82525050565b600060208201905061251e60008301846124fa565b92915050565b61252d816124e8565b811461253857600080fd5b50565b60008135905061254a81612524565b92915050565b60008060408385031215612567576125666122ee565b5b60006125758582860161253b565b925050602061258685828601612486565b9150509250929050565b600081519050919050565b600082825260208201905092915050565b6000819050602082019050919050565b6125c581612465565b82525050565b60006125d783836125bc565b60208301905092915050565b6000602082019050919050565b60006125fb82612590565b612605818561259b565b9350612610836125ac565b8060005b8381101561264157815161262888826125cb565b9750612633836125e3565b925050600181019050612614565b5085935050505092915050565b6000602082019050818103600083015261266881846125f0565b905092915050565b61267981612465565b82525050565b60006020820190506126946000830184612670565b92915050565b600080604083850312156126b1576126b06122ee565b5b60006126bf85828601612486565b92505060206126d085828601612486565b9150509250929050565b6000806000606084860312156126f3576126f26122ee565b5b60006127018682870161253b565b93505060206127128682870161253b565b925050604061272386828701612486565b9150509250925092565b600060208284031215612743576127426122ee565b5b60006127518482850161253b565b91505092915050565b600082825260208201905092915050565b6000612776826123b3565b612780818561275a565b93506127908185602086016123cf565b612799816123f9565b840191505092915050565b6000610100830160008301516127bd60008601826125bc565b50602083015184820360208601526127d5828261276b565b91505060408301516127ea60408601826125bc565b5060608301516127fd60608601826125bc565b50608083015161281060808601826125bc565b5060a083015184820360a0860152612828828261276b565b91505060c083015184820360c0860152612842828261276b565b91505060e083015184820360e086015261285c828261276b565b9150508091505092915050565b6000602082019050818103600083015261288381846127a4565b905092915050565b600080fd5b600080fd5b7f4e487b7100000000000000000000000000000000000000000000000000000000600052604160045260246000fd5b6128cd826123f9565b810181811067ffffffffffffffff821117156128ec576128eb612895565b5b80604052505050565b60006128ff6122e4565b905061290b82826128c4565b919050565b600067ffffffffffffffff82111561292b5761292a612895565b5b612934826123f9565b9050602081019050919050565b82818337600083830152505050565b600061296361295e84612910565b6128f5565b90508281526020810184848401111561297f5761297e612890565b5b61298a848285612941565b509392505050565b600082601f8301126129a7576129a661288b565b5b81356129b7848260208601612950565b91505092915050565b60008060008060008060c087890312156129dd576129dc6122ee565b5b600087013567ffffffffffffffff8111156129fb576129fa6122f3565b5b612a0789828a01612992565b9650506020612a1889828a01612486565b9550506040612a2989828a01612486565b945050606087013567ffffffffffffffff811115612a4a57612a496122f3565b5b612a5689828a01612992565b935050608087013567ffffffffffffffff811115612a7757612a766122f3565b5b612a8389828a01612992565b92505060a087013567ffffffffffffffff811115612aa457612aa36122f3565b5b612ab089828a01612992565b9150509295509295509295565b60008060408385031215612ad457612ad36122ee565b5b6000612ae285828601612486565b9250506020612af38582860161253b565b9150509250929050565b612b068161237d565b8114612b1157600080fd5b50565b600081359050612b2381612afd565b92915050565b60008060408385031215612b4057612b3f6122ee565b5b6000612b4e8582860161253b565b9250506020612b5f85828601612b14565b9150509250929050565b600067ffffffffffffffff821115612b8457612b83612895565b5b612b8d826123f9565b9050602081019050919050565b6000612bad612ba884612b69565b6128f5565b905082815260208101848484011115612bc957612bc8612890565b5b612bd4848285612941565b509392505050565b600082601f830112612bf157612bf061288b565b5b8135612c01848260208601612b9a565b91505092915050565b60008060008060808587031215612c2457612c236122ee565b5b6000612c328782880161253b565b9450506020612c438782880161253b565b9350506040612c5487828801612486565b925050606085013567ffffffffffffffff811115612c7557612c746122f3565b5b612c8187828801612bdc565b91505092959194509250565b60008060408385031215612ca457612ca36122ee565b5b6000612cb28582860161253b565b9250506020612cc38582860161253b565b9150509250929050565b7f4e487b7100000000000000000000000000000000000000000000000000000000600052602260045260246000fd5b60006002820490506001821680612d1457607f821691505b602082108103612d2757612d26612ccd565b5b50919050565b7f4552433732313a20617070726f76616c20746f2063757272656e74206f776e6560008201527f7200000000000000000000000000000000000000000000000000000000000000602082015250565b6000612d896021836123be565b9150612d9482612d2d565b604082019050919050565b60006020820190508181036000830152612db881612d7c565b9050919050565b7f4552433732313a20617070726f76652063616c6c6572206973206e6f7420746f60008201527f6b656e206f776e6572206f7220617070726f76656420666f7220616c6c000000602082015250565b6000612e1b603d836123be565b9150612e2682612dbf565b604082019050919050565b60006020820190508181036000830152612e4a81612e0e565b9050919050565b7f4e487b7100000000000000000000000000000000000000000000000000000000600052601160045260246000fd5b6000612e8b82612465565b9150612e9683612465565b9250828203905081811115612eae57612ead612e51565b5b92915050565b6000612ebf82612465565b91507fffffffffffffffffffffffffffffffffffffffffffffffffffffffffffffffff8203612ef157612ef0612e51565b5b600182019050919050565b7f4552433732313a2063616c6c6572206973206e6f7420746f6b656e206f776e6560008201527f72206f7220617070726f76656400000000000000000000000000000000000000602082015250565b6000612f58602d836123be565b9150612f6382612efc565b604082019050919050565b60006020820190508181036000830152612f8781612f4b565b9050919050565b7f596f7520617265206e6f742061206f776e657200000000000000000000000000600082015250565b6000612fc46013836123be565b9150612fcf82612f8e565b602082019050919050565b60006020820190508181036000830152612ff381612fb7565b9050919050565b600081905092915050565b50565b6000613015600083612ffa565b915061302082613005565b600082019050919050565b600061303682613008565b9150819050919050565b7f4552433732313a20696e76616c696420746f6b656e2049440000000000000000600082015250565b60006130766018836123be565b915061308182613040565b602082019050919050565b600060208201905081810360008301526130a581613069565b9050919050565b7f4552433732313a2061646472657373207a65726f206973206e6f74206120766160008201527f6c6964206f776e65720000000000000000000000000000000000000000000000602082015250565b60006131086029836123be565b9150613113826130ac565b604082019050919050565b60006020820190508181036000830152613137816130fb565b9050919050565b60008190508160005260206000209050919050565b60006020601f8301049050919050565b600082821b905092915050565b6000600883026131a07fffffffffffffffffffffffffffffffffffffffffffffffffffffffffffffffff82613163565b6131aa8683613163565b95508019841693508086168417925050509392505050565b6000819050919050565b60006131e76131e26131dd84612465565b6131c2565b612465565b9050919050565b6000819050919050565b613201836131cc565b61321561320d826131ee565b848454613170565b825550505050565b600090565b61322a61321d565b6132358184846131f8565b505050565b5b818110156132595761324e600082613222565b60018101905061323b565b5050565b601f82111561329e5761326f8161313e565b61327884613153565b81016020851015613287578190505b61329b61329385613153565b83018261323a565b50505b505050565b600082821c905092915050565b60006132c1600019846008026132a3565b1980831691505092915050565b60006132da83836132b0565b9150826002028217905092915050565b6132f3826123b3565b67ffffffffffffffff81111561330c5761330b612895565b5b6133168254612cfc565b61332182828561325d565b600060209050601f8311600181146133545760008415613342578287015190505b61334c85826132ce565b8655506133b4565b601f1984166133628661313e565b60005b8281101561338a57848901518255600182019150602085019450602081019050613365565b868310156133a757848901516133a3601f8916826132b0565b8355505b6001600288020188555050505b505050505050565b600081905092915050565b60006133d2826123b3565b6133dc81856133bc565b93506133ec8185602086016123cf565b80840191505092915050565b600061340482856133c7565b915061341082846133c7565b91508190509392505050565b7f4552433732313a207472616e736665722066726f6d20696e636f72726563742060008201527f6f776e6572000000000000000000000000000000000000000000000000000000602082015250565b60006134786025836123be565b91506134838261341c565b604082019050919050565b600060208201905081810360008301526134a78161346b565b9050919050565b7f4552433732313a207472616e7366657220746f20746865207a65726f2061646460008201527f7265737300000000000000000000000000000000000000000000000000000000602082015250565b600061350a6024836123be565b9150613515826134ae565b604082019050919050565b60006020820190508181036000830152613539816134fd565b9050919050565b7f4552433732313a20617070726f766520746f2063616c6c657200000000000000600082015250565b60006135766019836123be565b915061358182613540565b602082019050919050565b600060208201905081810360008301526135a581613569565b9050919050565b7f4552433732313a207472616e7366657220746f206e6f6e20455243373231526560008201527f63656976657220696d706c656d656e7465720000000000000000000000000000602082015250565b60006136086032836123be565b9150613613826135ac565b604082019050919050565b60006020820190508181036000830152613637816135fb565b9050919050565b7f4e487b7100000000000000000000000000000000000000000000000000000000600052601260045260246000fd5b600081519050919050565b600082825260208201905092915050565b60006136948261366d565b61369e8185613678565b93506136ae8185602086016123cf565b6136b7816123f9565b840191505092915050565b60006080820190506136d760008301876124fa565b6136e460208301866124fa565b6136f16040830185612670565b81810360608301526137038184613689565b905095945050505050565b60008151905061371d81612324565b92915050565b600060208284031215613739576137386122ee565b5b60006137478482850161370e565b91505092915050565b7f4552433732313a206d696e7420746f20746865207a65726f2061646472657373600082015250565b60006137866020836123be565b915061379182613750565b602082019050919050565b600060208201905081810360008301526137b581613779565b9050919050565b7f4552433732313a20746f6b656e20616c7265616479206d696e74656400000000600082015250565b60006137f2601c836123be565b91506137fd826137bc565b602082019050919050565b60006020820190508181036000830152613821816137e5565b905091905056fea2646970667358221220464f0a17ded9ed2f8e6268047608a837eb2ea27120d14c4ecdfb1d8b49b1f0b364736f6c63430008110033",
  "linkReferences": {},
  "deployedLinkReferences": {}
}